:020000040800F2
:10000000F84F0020610200085D290008FB25000868
:1000100059290008BD030008A934000800000000A9
:10002000000000000000000000000000A101000826
:10003000B506000800000000FD010008192E0008A8
:100040007B0200087B0200087B0200087B0200089C
:100050007B0200087B0200087B0200087B0200088C
:100060007B0200087B0200087B0200087B0200087C
:100070007B0200087B0200087B0200087B0200086C
:100080007B0200087B0200087B0200087B0200085C
:100090007B0200087B0200087B0200087B0200084C
:1000A0007B0200087B0200087B0200087B0200083C
:1000B0007B0200087B0200087B0200087B0200082C
:1000C0007B0200087B0200087B020008612900080F
:1000D0007B020008993400087B0200087B020008BC
:1000E0007B0200087B0200087B0200087B020008FC
:1000F0007B0200087B0200087B0200087B020008EC
:100100007B0200087B0200087B0200087B020008DB
:100110007B0200087B020008F92E00087B02000821
:10012000150500087B0200082505000835050008B4
:100130007B0200087B0200087B0200087B020008AB
:100140007B0200087B0200087B0200087B0200089B
:100150007B0200087B020008450500087B020008BE
:100160007B0200087B0200087B0200087B0200087B
:100170007B0200087B0200087B02000800000000F0
:100180007B0200087B020008DFF810D000F004F9C1
:10019000004800479D360008AFF30080F84F00206C
:1001A0002C4B19680868B0E8F04F80F30988BFF35A
:1001B0006F8F4FF0000080F311887047000000003F
:1001C00008480068006880F308884FF0000080F35A
:1001D000148862B661B6BFF34F8FBFF36F8F00DF35
:1001E00000BF00BF08ED00E0DFF80C00016841F43B
:1001F00070010160704700BF88ED00E0EFF30980F7
:10020000BFF36F8F134B1A681EF0100F08BF20ED5D
:10021000108A20E9F04F106009B44FF0500080F3CD
:100220001188BFF34F8FBFF36F8F04F035FB4FF092
:10023000000080F3118809BC19680868B0E8F04F25
:100240001EF0100F08BFB0EC108A80F30988BFF3CE
:100250006F8F704728000020EFF305807047000083
:100260000648804706480047FEE7FEE7FEE7FEE750
:10027000FEE7FEE7FEE7FEE7FEE7FEE7E52E000805
:10028000890100082DE9F05F0546002092469B4653
:1002900088460646814640241BE02846414647469C
:1002A000224600F069F853465A46C01A914110D3CD
:1002B00011461846224600F050F82D1A67EB010847
:1002C0004F4622460120002100F047F817EB0009B5
:1002D0004E41201EA4F10104DFDC484631462A4687
:1002E0004346BDE8F09F40EA01039B0703D009E0C5
:1002F00008C9121F08C0042AFAD203E011F8013B12
:1003000000F8013B521EF9D27047D2B201E000F86A
:10031000012B491EFBD270470022F6E710B51346A9
:100320000A4604461946FFF7F0FF204610BD30B5D7
:100330000B46014600202022012409E021FA02F5A3
:100340009D4205D303FA02F5491B04FA02F528443D
:10035000151EA2F10102F1DC30BD202A04DB203A97
:1003600000FA02F1002070479140C2F1200320FA08
:1003700003F3194390407047202A04DB203A21FA06
:1003800002F00021704721FA02F3D040C2F12002AE
:100390009140084319467047064C074D06E0E06857
:1003A00040F0010394E8070098471034AC42F6D3BC
:1003B000FFF7EEFED8570008F857000800BFFEE729
:1003C00010B50446082C71D2DFE804F00416283A70
:1003D0004C5E718300BF00220221484800F0B2FC4D
:1003E00000220421454800F0ADFC002208214348CA
:1003F00000F0A8FC00BF7FE000BF012202213F48BF
:1004000000F0A0FC002204213C4800F09BFC0022EC
:1004100008213A4800F096FC00BF6DE000BF0022C2
:100420000221364800F08EFC01220421334800F0FE
:1004300089FC00220821314800F084FC00BF5BE009
:1004400000BF002202212D4800F07CFC0122042183
:100450002A4800F077FC01220821284800F072FCAD
:1004600000BF49E000BF01220221244800F06AFCDD
:1004700000220421214800F065FC002208211F48C9
:1004800000F060FC00BF37E000BF012202211B48E2
:1004900000F058FC00220421184800F053FC01220F
:1004A0000821164800F04EFC00BF25E023E000BF05
:1004B00001220221114800F045FC012204210F48CD
:1004C00000F040FC002208210C4800F03BFC00BF7B
:1004D00012E000BF01220221084800F033FC012293
:1004E0000421064800F02EFC01220821034800F0F8
:1004F00029FC00BF00E000BF00BF10BD00000240AB
:1005000010B500220821024800F01CFC10BD0000BC
:100510000008024010B5024800F03AF910BD000092
:100520001801002010B5024800F032F910BD00009B
:100530001C02002010B5024800F02AF910BD00008E
:100540007801002010B5024800F022F910BD00002B
:100550007C0200200146087810381823B0FBF3F223
:100560000848805CC865032A05D908686FF309004C
:10057000001D886503E008686FF309008865886DD1
:100580007047000090570008014600208A6A8B6976
:10059000CBB932B1012A0DD0022A03D0032A10D1DF
:1005A0000EE000BFCB6A03F08073B3F1807F00D10F
:1005B000012007E0CB6AB3F1C07F00D1012001E048
:1005C00000E000BF34E08B69B3F5005F1AD132B1AF
:1005D000012A07D0022A03D0032A11D10AE000BF62
:1005E00001200EE0CB6A03F08073B3F1807F00D16D
:1005F000012006E0CB6AB3F1C07F00D1012000E00A
:1006000000BF15E032B1012A05D0022A04D0032A26
:100610000CD103E000BF00BF012008E0CB6A03F06B
:100620008073B3F1807F00D1012000E000BF00BFE4
:10063000704730B50468246824F4802405682C6071
:10064000046863608468402C04D10468A260046874
:10065000E16003E00468A1600468E26030BD00006E
:1006600008B500BF4FF0FF3269460848006804F043
:1006700065FC0446012C05D1BDF8001004A002F071
:1006800015FFEFE708A002F011FFEBE710000020D4
:10069000546865204144432064617461206973207B
:1006A00025640D0A000000004E6F20646174610D26
:1006B0000A000000704772B600BFFEE770B504463E
:1006C000A56D00F045FB064694F83500022808D0D9
:1006D0008020606500BF002084F8340000BF012046
:1006E00070BD2068006820F016002168086020684E
:1006F000406920F0800021684861206C08B9A06C36
:1007000028B12068006820F008002168086020688F
:10071000006820F001002168086010E000F018FB7C
:10072000801B05280BD920206065032084F8350044
:1007300000BF002084F8340000BF0320D0E7206809
:10074000006800F001000028E8D194F85C103F2018
:100750008840A860012084F8350000BF002084F89C
:10076000340000BF00BFBBE7014691F83500022806
:1007700003D08020486501207047052081F83500AE
:100780000868006820F001000A6810600020F3E7A4
:10079000F8B50446002000908C4800684FF41651CC
:1007A000B0FBF1F7A56D2E6894F85C100820884026
:1007B000304098B12068006800F0040070B12068F3
:1007C000006820F004002168086094F85C1008209C
:1007D0008840A860606D40F00100606594F85C108E
:1007E00001208840304068B12068406900F08000F6
:1007F00040B194F85C1001208840A860606D40F022
:100800000200606594F85C1004208840304068B1B4
:100810002068006800F0020040B194F85C100420E9
:100820008840A860606D40F00400606594F85C103A
:1008300010208840304078B32068006800F008003D
:1008400050B394F85C1010208840A86020680068BD
:1008500000F4802080B12068006800F4002028B9EE
:10086000206CC8B12046216C884715E0A06C98B177
:100870002046A16C88470FE02068006800F4807073
:1008800028B92068006820F0080021680860206C02
:1008900010B12046216C884794F85C1020208840D5
:1008A0003040002865D02068006800F01000002863
:1008B0005FD094F85C1020208840A86094F8350040
:1008C000052828D12068006820F0160021680860FB
:1008D0002068406920F0800021684861206C08B9D8
:1008E000A06C28B12068006820F00800216808602A
:1008F00094F85C103F208840A860012084F83500FF
:1009000000BF002084F8340000BF206D10B12046E5
:10091000216D8847F8BD2068006800F4802080B110
:100920002068006800F4002028B9606C10B12046EF
:10093000616C88471DE0E06BD8B12046E16B8847C9
:1009400017E02068006800F4807068B920680068CB
:1009500020F0100021680860012084F8350000BFF5
:10096000002084F8340000BFE06B10B12046E16B3A
:100970008847606D38B3606D00F00100F0B105206C
:1009800084F835002068006820F0010021680860C4
:1009900000BF0098401C0090B84200D905E02068D4
:1009A000006800F001000028F3D100BF012084F8A6
:1009B000350000BF002084F8340000BFE06C10B1A7
:1009C0002046E16C884700BFA4E700002400002017
:1009D0002DE9F0410446002500F0BAF9074614B9A4
:1009E0000120BDE8F081606A00B100BF022084F8F8
:1009F000350000BF002084F8340000BF2068006884
:100A000020F00100216808600AE000F0A1F9C01B95
:100A1000052805D920206065032084F83500E0E72B
:100A20002068006800F001000028EED12068056809
:100A300021480540D4E901010843E16808432169E0
:100A4000084361690843A1690843E1690843216AD1
:100A500008430543606A042803D1D4E90B01084325
:100A60000543206805602068456925F00705606A30
:100A70000543606A04280DD1A06A0543E06A48B1C5
:100A80002046FFF781FD28B140206065012084F8F1
:100A90003500A6E7206845612046FFF75BFD064666
:100AA00094F85C103F208840B06000206065012011
:100AB00084F83500002094E73F8010F02DE9F047DE
:100AC00004460D4616461F464FF00008D4F85890CD
:100AD00000BF94F83400012802D10220BDE8F0875D
:100AE000012084F8340000BF94F83500012825D196
:100AF000022084F83500002060653B4632462946D6
:100B00002046FFF796FD94F85C103F208840C9F816
:100B100008002068006840F0160021680860206C1A
:100B200028B12068006840F008002168086020684B
:100B3000006840F001002168086006E000BF002066
:100B400084F8340000BF4FF002084046C6E70000BA
:100B5000F8B502460B460025002400200021D6E00F
:100B6000012606FA01F51E6806EA0504AC4274D1B6
:100B70001E7906F00306012E04D01E7906F0030646
:100B8000022E13D190684F000326BE40B0434F00A1
:100B9000DE68BE4030439060506801268E40B0430E
:100BA0001E79C6F300168E40304350601E7906F061
:100BB0000306032E09D0D0684F000326BE40B04381
:100BC0004F009E68BE403043D0601E7906F0030699
:100BD000022E13D1CF0802F1200656F827004E0747
:100BE000F70E0F26BE40B0434F07FF0E1E69BE40F2
:100BF0003043CF0802F1200646F8270010684F0066
:100C00000326BE40B0431E7906F003064F00BE40E7
:100C1000304310605E6806F44036002E76D000BF88
:100C2000002600963C4E366846F480463A4F3E60B9
:100C30003E46366806F48046009600BF00BF374E39
:100C40008F0856F827008E07370F0F26BE40B04397
:100C5000334EB24202D1002624E057E0314EB24278
:100C600001D101261EE0304EB24201D1022619E028
:100C70002E4EB24201D1032614E02D4EB24201D1D4
:100C800004260FE02B4EB24201D105260AE02A4E7F
:100C9000B24201D1062605E0284EB24201D1072614
:100CA00000E008268F073F0FBE4030431B4E8F08E1
:100CB00046F82700224E3068A0435E6806F480168E
:100CC00006B120431E4E3060361D3068A0435E687A
:100CD00006F4001606B12043194E361D3060184E3A
:100CE000361F3068A0435E6806F4003606B1204324
:100CF000134E361F3060361F3068A0435E6806F41E
:100D0000803606B120430E4E083E3060491C102943
:100D1000FFF426AFF8BD0000443802400838014017
:100D2000000002400004024000080240000C0240A3
:100D3000001002400014024000180240001C024053
:100D4000083C01400AB1816101E00B0483617047F6
:100D50000148006870470000180000200348006840
:100D600003490978084401490860704718000020C9
:100D70002000002010B50D48006840F400700B49B9
:100D800008600846006840F4806008600846006813
:100D900040F480700860032000F0DCF80F2000F0C1
:100DA00007F800F05FF8002010BD0000003C024092
:100DB0002DE9F04188B004460027B84600BF002066
:100DC00001902348006840F010002149086008465F
:100DD000006800F01000019000BF00BF02A903A846
:100DE00000F08EF9069F1FB900F0B2F9054602E047
:100DF00000F0AEF945001748B5FBF0F0A0F101088E
:100E000015481649086040F2E7311448C160C0F83F
:100E10000480002101618160816100F0E2FF0646EB
:100E200096B90E4801F012F806466EB9362000F069
:100E300043F8102C07D200222146362000F04CF84F
:100E40000748046000E00126304608B0BDE8F081A4
:100E50004038024040420F0000100040DC020020F9
:100E60001C00002008B500BF002000901148006859
:100E700040F480400F4908600846006800F4804054
:100E8000009000BF00BF00BF00200090081F006856
:100E900040F08050091F08600846006800F080504C
:100EA000009000BF00BF00220F21901E00F014F838
:100EB00008BD00004438024001460846002809DB0E
:100EC00000F01F0301229A4043099B0003F1E02335
:100ED000C3F8002100BF70472DE9F05F80460D4642
:100EE0001646002702F0F2FA074639462A463346EC
:100EF00001F00700C0F1070ABAF1040F02D94FF060
:100F0000040A01E0C0F1070AD14600F1040ABAF16F
:100F1000070F02D24FF0000A01E0A0F1030AD44605
:100F20004FF0010A0AFA09FAAAF1010A0AEA020ACA
:100F30000AFA0CFA4FF0010B0BFA0CFBABF1010BA8
:100F40000BEA030B4AEA0B042146404602F0C6FABC
:100F5000BDE8F09F00BF00F00702064B19684FF68E
:100F6000FF031940044B0B4343EA0221014B196074
:100F700000BF70470CED00E00000FA0570B50446B4
:100F80000D460CB9012070BD5848006800F00700FC
:100F9000A84209D255490D700846006800F00700C4
:100FA000A84201D00120EEE7207800F002000228DC
:100FB0001DD1207800F00400042805D14C480068B9
:100FC00040F4E0504A490860207800F00800082802
:100FD00005D14748006840F46040454908604448EE
:100FE000006820F0F000A1680843414908602078BB
:100FF00000F00100A8B36068012807D13C48083818
:101000000068C0F34040B8B90120BCE7606802281E
:1010100002D06068032807D1354808380068C0F35B
:10102000406048B90120AEE7314808380068C0F395
:10103000400008B90120A6E72D48006820F0030011
:10104000616808432A490860FFF782FE064609E006
:10105000FFF77EFE801B41F28831884202D90320CF
:1010600091E707E02248006800F00C006168B0EBEF
:10107000810FEDD11D48006800F00700A84209D992
:101080001A490D700846006800F00700A84201D018
:10109000012078E7207800F00400042807D11448E4
:1010A000006820F4E050E1680843114908602078A6
:1010B00000F00800082808D10D48006820F46040BE
:1010C000216940EAC1000A49086000F061F8084956
:1010D0000968C1F30311074A515CC840064908601A
:1010E00006480068FFF764FE00204CE7003C024021
:1010F0000838024098570008240000201C000020F7
:101100000F2202600D4A126802F0030242600B4A8D
:10111000126802F0F0028260084A126802F4E0529B
:10112000C260064A126802F46042D2080261044AB0
:10113000126802F007020A60704700000838024097
:10114000003C024001480068704700002400002075
:1011500000B5FFF7F7FF04490968C1F38221034A8C
:10116000515CC84000BD000008380240A857000884
:1011700000B5FFF7E7FF04490968C1F34231034AAC
:10118000515CC84000BD000008380240A857000864
:101190002DE9F047002400250026A14625480068D7
:1011A00000F00C0020B1042805D008283AD105E051
:1011B000DFF8849039E0DFF8809036E01D48001FAA
:1011C000006800F03F041B48001F006800F4800026
:1011D00078B119481749091F0968C1F38811A0FBA4
:1011E00001700146224600233846FFF74BF80546BA
:1011F0000EE011480F49091F0968C1F38811A0FBCF
:1012000001700146224600233846FFF73BF80546A9
:101210000848001F0068C0F30140401C4600B5FBB1
:10122000F6F902E0DFF8109000BF00BF4846BDE8C5
:10123000F0870000083802400024F400F8B50446A6
:101240000CB90120F8BD207800F00100002874D00E
:10125000F948006800F00C0004280DD0F64800683A
:1012600000F00C00082813D1F348001F006800F4B8
:101270008000B0F5800F0BD1EF4808380068C0F34C
:101280004040002859D06068002856D10120D9E795
:1012900000BF6068B0F5803F08D1E74808380068B3
:1012A00040F48030E449083908601EE06068B0F519
:1012B000A02F0DD1E0480838006840F48020DE49B6
:1012C000083908600846006840F4803008600CE087
:1012D000D9480838006820F48030D74908390860B8
:1012E0000846006820F48020086000BF606890B164
:1012F000FFF72EFD054606E0FFF72AFD401B642898
:1013000001D903209EE7CC4808380068C0F340406C
:101310000028F1D011E0FFF71BFD054606E0FFF7BE
:1013200017FD401B642801D903208BE7C248083809
:101330000068C0F340400028F1D1207800F002009E
:1013400002285FD1BC48006800F00C0058B1BA48D0
:10135000006800F00C0008281CD1B748001F006886
:1013600000F48000B0B9B44808380068C0F3400009
:1013700020B1E068012801D0012063E7AE480838B9
:10138000006820F0F800216940EAC100AA49083944
:10139000086037E0E06800B30120A8490860FFF763
:1013A000D7FC054606E0FFF7D3FC401B022801D915
:1013B000032047E7A04808380068C0F34000002831
:1013C000F1D09D480838006820F0F800216940EA13
:1013D000C10099490839086014E000209749086065
:1013E000FFF7B6FC054606E0FFF7B2FC401B0228FB
:1013F00001D9032026E7904808380068C0F3400070
:101400000028F1D1207800F0080008282CD160696C
:10141000A8B101208A490860FFF79AFC054606E05A
:10142000FFF796FC401B022801D903200AE78248F7
:101430006C300068C0F340000028F1D014E00020B8
:101440007F490860FFF784FC054606E0FFF780FC53
:10145000401B022801D90320F4E677486C3000686D
:10146000C0F340000028F1D1207800F004000428E7
:1014700070D1002770483830006800F0805090B973
:1014800000BF002000906C483830006840F0805069
:101490006949383108600846006800F080500090C3
:1014A00000BF00BF01276748006800F48070B0B932
:1014B0006448006840F4807062490860FFF748FCA7
:1014C000054606E0FFF744FC401B022801D9032033
:1014D000B8E65C48006800F480700028F2D000BFD5
:1014E000A068012808D154486830006840F0010025
:1014F0005149683108601DE0A06805280DD14E48AB
:101500006830006840F004004B49683108600846C4
:10151000006840F0010008600CE04748683000684F
:1015200020F001004449683108600846006820F056
:101530000400086000BFA068A8B1FFF709FC0546D9
:1015400009E0FFF705FC401B41F28831884202D9CF
:10155000032077E626E0384868300068C0F3400092
:101560000028EED013E0FFF7F3FB054608E0FFF795
:10157000EFFB401B41F28831884201D9032061E62C
:101580002D4868300068C0F340000028EFD1012FDB
:1015900007D129483830006820F08050264938317A
:1015A000086000BFA069002845D02348006800F00B
:1015B0000C0008285DD0A069022845D100201F49F1
:1015C0000866FFF7C5FB054606E0FFF7C1FB401BB9
:1015D000022801D9032035E6174808380068C0F30F
:1015E00040600028F1D1D4E907010843616A40EA6C
:1015F00081110122A06AC2EB500041EA00412C2077
:10160000005D41EA00600C49091F086001200B4998
:101610000866FFF79DFB054606E0FFF799FB401BB8
:10162000022801D903200DE6034808380068C0F3FA
:1016300040600028F1D049E00838024000004742ED
:10164000800E474200700040002021490866FFF7E5
:101650007FFB054606E0FFF77BFB401B022801D914
:101660000320EFE51B480068C0F340600028F2D17A
:101670002CE0A069012800D1E4E51648001D0668A9
:10168000A069012820D006F48001E06981421BD1C5
:1016900006F03F01206A814216D147F6C070304003
:1016A000616AB0EB811F0FD106F440310122A06ABC
:1016B000C2EB5000B1EB004F06D106F070612C2058
:1016C000005DB1EB006F01D00120BBE50020B9E562
:1016D000000047420038024070470000F8B5044659
:1016E0002068466820688568C5F3801048B905F011
:1016F000010030B1C6F3801018B12046216C884734
:10170000F8BDC5F3400030B1C6F3C01018B1204693
:10171000616C8847F4E7C5F3401030B9C5F3801019
:1017200018B9C5F3002000287CD0C6F3401000286B
:101730007DD0C5F38010F0B194F8510003280ED08D
:10174000606D40F00400606500BF002000902068DC
:10175000C068009020688068009000BF0BE000BF68
:10176000002000902068C068009020688068009089
:1017700000BF00BFC4E7C5F3401088B1606D40F002
:101780000100606500BF0020009020688068009024
:101790002068006820F040002168086000BF00BF9A
:1017A000C5F3002058B1606D40F00800606500BFCF
:1017B0000020009020688068009000BF00BF606D2E
:1017C00078B32068406820F0E0002168486001207C
:1017D00084F8510006F00200022802D006F0010051
:1017E00008B32068406820F0030021684860E06C7E
:1017F00050B11048E16C0865E06CFEF7B5FF18B118
:10180000606D40F040006065A06C50B10948A16C6B
:101810000865A06CFEF7A8FF18B1606D40F04000AD
:10182000606503E003E02046FFF756FF68E700BF6E
:1018300066E700007129000810B504460CB90120C4
:1018400010BD606A38B96068B0F5827F00D105E0EC
:101850000021E16102E00021216161610021A162BA
:1018600094F8510028B9002084F85000204600F078
:1018700047F8022084F851002068006820F04000FA
:1018800021680860A08800F48270218901F4044175
:101890000843A18901F400610843217C01F00201A1
:1018A0000843217D01F001010843218B01F40071FF
:1018B0000843217F01F0380108432021095D01F030
:1018C00080010843218D01F400510843216808601C
:1018D0000421A06901EA104094F8241001F01001DD
:1018E0000843216848602068C06920F400602168CE
:1018F000C86100206065012084F8510000209FE746
:1019000010B586B00446142101A8FEF705FD424932
:10191000206888427DD100BF002000903F480068C9
:1019200040F480503D4908600846006800F480504B
:10193000009000BF00BF00BF00200090374814385F
:10194000006840F001003549143908600846006815
:1019500000F00100009000BF00BFE02001900220D5
:10196000029000200390032004900520059001A917
:101970002B48FFF7EDF82B482B4908604FF0C0606B
:101980004860002128488160C1604FF48061016196
:1019900049004161890081610021C1614FF44031FA
:1019A000016200214162FFF713F808B1FEF783FEE0
:1019B00000BF1D48E064846300BF1A4848301B49DB
:1019C00008604FF0C06048604021184881600021E5
:1019D000C1604FF48061016149004161890081610A
:1019E0000021C1614FF44031016200214162FEF7E4
:1019F000EFFF08B1FEF75FFE00BF0C48A0648463F0
:101A000000BF002205212320FFF766FA2320FFF7FD
:101A100053FA06B010BD00000030014044380240C7
:101A200000000240106402401801002078010020EC
:101A30002DE9F04104460E4615460027A06870B90E
:101A40006068B0F5827F0AD1042084F851002B46EB
:101A500032463146204600F07BF8BDE8F08100BFF9
:101A600094F85000012801D10220F6E7012084F803
:101A7000500000BF94F85100012801D0022757E020
:101A800006B10DB9012753E0042084F8510000206D
:101A90006065A663A587E58720646064A086E0860C
:101AA000A068B0F5004F0BD12068006820F040001E
:101AB000216808602068006820F480402168086080
:101AC0001F48E16C08641F48E16CC8631E48E16C64
:101AD000C8640020E16C0865E38FD4F800C00CF105
:101AE0000C01A26BE06CFEF7E9FF40B1606D40F0C5
:101AF000100060650127012084F8510018E020687B
:101B0000006800F04000402805D02068006840F0E0
:101B10004000216808602068406840F0200021688B
:101B200048602068406840F001002168486000BFBC
:101B300000BF002084F8500000BF38468DE7000049
:101B4000AD290008D729000885290008704770478B
:101B50002DE9F04704460E4617461D464FF0000A91
:101B600000BF94F85000012802D10220BDE8F087A0
:101B7000012084F8500000BF94F85180D4F80490FC
:101B8000B8F1010F0AD0B9F5827F04D1A06810B96D
:101B9000B8F1040F02D04FF0020A7DE00EB107B198
:101BA00015B94FF0010A77E094F85100042802D0EB
:101BB000052084F85100002060652663A586E5862F
:101BC000A763A587E5872064606494F85100042822
:101BD00006D13548E16C08643448E16CC86305E01F
:101BE0003348E16C08643348E16CC8633248E16C07
:101BF000C8640020E16C0865E38FD4F800C00CF1E4
:101C00000C01A26BE06CFEF759FF48B1606D40F02B
:101C1000100060654FF0010A012084F851003BE09C
:101C20002068406840F00100216848600020A16CF5
:101C30000864A16CC863A16CC864A16C0865E38EDC
:101C4000D4F800C00CF10C02216BA06CFEF736FF3B
:101C500048B1606D40F0100060654FF0010A01204E
:101C600084F8510018E02068006800F04000402827
:101C700005D02068006840F04000216808602068B6
:101C8000406840F02000216848602068406840F0CB
:101C900002002168486000BF00BF002084F85000A7
:101CA00000BF504662E70000AD290008D7290008B0
:101CB000C9290008D32A0008852900082DE9F04128
:101CC00004460E461546002700BF94F85000012830
:101CD00002D10220BDE8F081012084F8500000BF4D
:101CE00094F85100012801D0022758E006B10DB93F
:101CF000012754E0032084F851000020606526632A
:101D0000A586E586A06360642064A087E087A0685C
:101D1000B0F5004F0BD12068006820F0400021682A
:101D200008602068006840F48040216808601F480F
:101D3000A16C08641E48A16CC8631E48A16CC864ED
:101D40000020A16C0865E38ED4F800C00CF10C02F1
:101D5000216BA06CFEF7B2FE40B1606D40F0100048
:101D600060650127012084F8510018E020680068B0
:101D700000F04000402805D02068006840F0400096
:101D8000216808602068406840F0200021684860B1
:101D90002068406840F002002168486000BF00BF32
:101DA000002084F8500000BF384693E7BB290008A4
:101DB000532A00088529000870477047064909889A
:101DC0004FF6FF7202EA0111034A11801146098899
:101DD0000911118070470000000000207047704713
:101DE000704710B504460CB9012010BD94F83D00B1
:101DF00028B9002084F83C00204600F025F8022095
:101E000084F83D00211D206801F07EF8012084F84F
:101E1000460000BF84F83E0001213F2001554020CC
:101E200001554120015500BF00BF012084F8420048
:101E300043200155442001554520015500BF012094
:101E400084F83D000020D0E770470000014691F87B
:101E50003D00012801D001207047022081F83D009B
:101E60000868C06840F001000B68D8601A4B086829
:101E700098421BD00868B0F1804F17D0174B086804
:101E8000984213D0164B086898420FD0154B08683B
:101E900098420BD0144B0868984207D0134B08683F
:101EA000984203D0124B086898420CD108688068A9
:101EB00000F00702062A0CD00868006840F0010014
:101EC0000B68186005E00868006840F001000B68C6
:101ED00018600020C0E7000000000140000400403E
:101EE00000080040000C0040000401400040014098
:101EF00000180040704710B5044620680069C0F320
:101F00004000D8B12068C068C0F34000B0B16FF0A5
:101F1000020021680861012020772068806900F0B4
:101F2000030018B12046FFF7E5FF05E0204600F06A
:101F3000ADF8204600F0ABF800202077206800695B
:101F4000C0F38000D8B12068C068C0F38000B0B191
:101F50006FF0040021680861022020772068806902
:101F600000F4407018B12046FFF7C4FF05E020469A
:101F700000F08CF8204600F08AF8002020772068D6
:101F80000069C0F3C000D8B12068C068C0F3C000C9
:101F9000B0B16FF008002168086104202077206844
:101FA000C06900F0030018B12046FFF7A3FF05E069
:101FB000204600F06BF8204600F069F800202077FA
:101FC00020680069C0F30010D8B12068C068C0F371
:101FD0000010B0B16FF01000216808610820207770
:101FE0002068C06900F4407018B12046FFF782FFF6
:101FF00005E0204600F04AF8204600F048F80020AE
:1020000020772068006900F0010058B12068C0689E
:1020100000F0010030B16FF0010021680861204636
:1020200000F036F820680069C0F3C01058B120688D
:10203000C068C0F3C01030B16FF080002168086143
:102040002046FFF7CCFE20680069C0F3801058B12D
:102050002068C068C0F3801030B16FF04000216884
:102060000861204600F020F820680069C0F34010A5
:1020700058B12068C068C0F3401030B16FF0200044
:10208000216808612046FFF7ABFE10BD704770471E
:1020900010B5044603492068884201D1FEF75EFE70
:1020A00010BD0000001000407047704770470000EE
:1020B0002DE9F84F0446206805682068C668206846
:1020C00047694FF00009CA4605F00F09B9F1000F42
:1020D0000AD105F0200038B106F0200020B12046DA
:1020E00000F0CEFFBDE8F88FB9F1000F7CD007F00B
:1020F000010018B906F49070002875D005F00100B1
:1021000030B106F4807018B1206C40F001002064FA
:1021100005F0040030B107F0010018B1206C40F068
:102120000200206405F0020030B107F0010018B190
:10213000206C40F00400206405F0080048B106F06F
:10214000200010B907F0010018B1206C40F0080021
:102150002064206C002846D005F0200028B106F04D
:10216000200010B1204600F08BFF20684069C0F3CA
:10217000801A206C00F0080010B9BAF1000F2DD0C1
:10218000204600F037FF2068406900F040004028FA
:1021900020D100BF00BF2168143151E8001F21F099
:1021A00040002168143141E80002002AF3D100BF49
:1021B000A06B50B17548A16B0865A06BFEF7D4FA0F
:1021C00088B1A06B016D88470DE02046FFF76EFFD8
:1021D00009E009E02046FFF769FF04E02046FFF729
:1021E00065FF002020647DE7206B012876D105F093
:1021F0001000002872D006F010000028FAD000BFAE
:1022000000200090206800680090206840680090DE
:1022100000BF00BF2068406900F0400040285ED148
:10222000A06B006840681FFA80F8B8F1000F54D026
:10223000A08D404551DDA4F82E80A06BC069B0F59B
:10224000807F43D000BF00BF21680C3151E8001FE0
:1022500021F4807021680C3141E80002002AF3D19A
:1022600000BF00BF00BF2168143151E8001F21F0FA
:1022700001002168143141E80002002AF3D100BFB7
:1022800000BF00BF2168143151E8001F21F0400059
:102290002168143141E80002002AF3D100BF202058
:1022A00084F83E000020206300BF00BF21680C318D
:1022B00051E8001F21F0100021680C3141E80002B4
:1022C000002AF3D100BFA06BFEF7F8F9A08DE28DD4
:1022D000801A81B22046FFF7E8FE03E740E0A08DB8
:1022E000E18D401A1FFA80F8E08DC0B3B8F1000FFD
:1022F00035D000BF00BF21680C3151E8001F21F428
:10230000907021680C3141E80002002AF3D100BF2F
:1023100000BF00BF2168143151E8001F21F0010007
:102320002168143141E80002002AF3D100BF2020C7
:1023300084F83E000020206300BF00BF21680C31FC
:1023400051E8001F21F0100021680C3141E8000223
:10235000002AF3D100BF41462046FFF7A6FEC1E6A2
:1023600005F0800030B106F0800018B1204601F081
:1023700019F8B7E605F0400030B106F0400018B19A
:10238000204600F06DFEADE600BFABE6E12F000891
:1023900010B504460CB9012010BDA06900B100E0E1
:1023A00000BF94F83D0028B9002084F83C00204686
:1023B00000F028F8242084F83D002068C06820F44C
:1023C00000502168C860204600F0D6FE20680069F1
:1023D00020F49040216808612068406920F02A00BC
:1023E000216848612068C06840F400502168C860D6
:1023F00000202064202084F83D0084F83E00002066
:10240000CAE7000010B586B00446142101A8FDF704
:1024100083FF3E492068884276D100BF00200090AB
:102420003B48006840F010003949086008460068E1
:1024300000F01000009000BF00BF00BF002000901F
:1024400033481438006840F00100314914390860FD
:102450000846006800F00100009000BF00BF4FF484
:10246000C06001900220029000200390032004909D
:102470000720059001A92748FEF76AFB264827494F
:1024800008604FF000604860002124488160C1600E
:102490004FF480610161002141618161C16101628C
:1024A0004162FEF795FA08B1FEF705F900BF1B4837
:1024B000A063846300BF18487830194908604FF062
:1024C000006048604021164881600021C1604FF4DF
:1024D0008061016149004161890081610021C16120
:1024E00001624162FEF774FA08B1FEF7E4F800BF3A
:1024F0000B486063846300BF002205212520FEF79E
:10250000EBFC2520FEF7D8FC06B010BD0010014002
:102510004438024000000240406402401C02002097
:102520007C02002070472DE9F84F04460E461746FE
:1025300099464FF0000A94F83D0020285AD106B180
:1025400017B90120BDE8F88F00BF94F83C000128BE
:1025500001D10220F6E7012084F83C0000BF0020F2
:102560002064212084F83D00FEF7F2FB8246A78418
:10257000E784A068B0F5805F04D1206910B9002518
:10258000B04602E035464FF0000800BF002084F856
:102590003C0000BF1BE05346002280212046CDF8BE
:1025A000009000F02FFF08B10320CBE745B9B8F841
:1025B0000000C0F308002168486008F1020803E049
:1025C0002878216848606D1CE08C401EE084E08C17
:1025D0000028E0D15346002240212046CDF800904B
:1025E00000F010FF08B10320ACE7202084F83D0084
:1025F0000020A7E70220A5E7704700BFFEE7000024
:1026000010B5FDF77DFF012210211548FEF79AFB5A
:10261000012214491448FFF751FB002210211048F1
:10262000FEF790FB012001F04FF8012210210C4829
:10263000FEF788FB01220B49891C0B48FFF73EFB84
:10264000002210210648FEF77DFB012001F03CF836
:102650004FF6FF73102205490548FFF764FF10BDD0
:1026600000000240A8000020C0000020AC000020B4
:10267000D801002008B500BF00200090164800686F
:1026800040F48000144908600846006800F48000A7
:10269000009000BF00BF002205213820FEF71CFC7F
:1026A0003820FEF709FC002205213A20FEF714FC31
:1026B0003A20FEF701FC002205213B20FEF70CFC2E
:1026C0003B20FEF7F9FB002205214620FEF704FC23
:1026D0004620FEF7F1FB08BD3038024010B500225D
:1026E0000221402002F0EEF90F4908600F4A002154
:1026F0000F4801F03FF80F4908600F4A00210F48CA
:1027000001F038F80E4908600E4A00210E4801F029
:1027100031F80E4908600E4A00210E4801F02AF8EF
:102720000D49086010BD0000100000206857000827
:10273000E12D000814000020FC560008ED2D0008D3
:102740000400002020570008152D00080800002074
:1027500044570008610600080C00002000B587B04F
:10276000142102A8FDF7D8FD00BF002001905548B4
:10277000006840F08000534908600846006800F097
:102780008000019000BF00BF00BF002001900846FC
:10279000006840F0040008600846006800F004008B
:1027A000019000BF00BF00BF0020019008460068F4
:1027B00040F0010008600846006800F00100019048
:1027C00000BF00BF00BF002001900846006840F035
:1027D000100008600846006800F01000019000BF7B
:1027E00000BF00BF002001900846006840F00800CC
:1027F00008600846006800F00800019000BF00BFB4
:10280000012208213048FEF79DFA00220E212F48B0
:10281000FEF798FA012210212C48FEF793FA0122C4
:102820004FF4C0712A48FEF78DFA00224FF48071F0
:102830002848FEF787FA0820029001200390002024
:102840000490059002A92048FEF782F90E2002901C
:102850000120039000200490059002A91B48FEF778
:1028600077F91020029001200390002004900320AB
:10287000059002A91548FEF76BF94FF4C07002905D
:102880000120039000200490059002A91048FEF753
:102890005FF94FF400700290002003900220049032
:1028A00002A90B48FEF754F94FF480700290012002
:1028B000039000200490059002A90648FEF748F90D
:1028C00007B000BD3038024000080240000002405E
:1028D00000100240000C024010B50F480F4908607C
:1028E0004FF48270486000210C4881604FF4006111
:1028F000C1600021016141614FF4007181610021DB
:10290000C1610162416281620A21C162FEF794FFE6
:1029100008B1FDF7D0FE10BD00300140C00000201E
:1029200010B50B480B4908604FF4E13048600021B6
:1029300008488160C16001610C2141610021816111
:10294000C161FFF725FD08B1FDF7B5FE10BD000020
:1029500000100140D801002000BFFEE700BFFEE7E5
:1029600010B50248FEF7BAFE10BD0000C0000020FE
:1029700070B50546AC6B0020E087E0862046FEF788
:10298000ABFE70BD70B50546AC6B2068406820F0AA
:10299000030021684860606D40F010006065012010
:1029A00084F851002046FEF797FE70BD70B50446CE
:1029B000A56B2846FFF7CBF870BD70B50446A56B34
:1029C0002846FFF7FAF970BD70B50446A56B284696
:1029D000FFF704FA70BD70B50546AC6BFEF7B8F9A9
:1029E00006462868006800F48070B0F5807F2BD020
:1029F0002068406820F0200021684860A06850B935
:102A00006068B0F5827F06D12068406820F003003E
:102A10002168486005E02068406820F001002168D6
:102A2000486032466421204600F087F808B1202033
:102A300060650020E087012084F85100606D18B1C6
:102A40002046FEF749FE70BD2046FFF77FF800BF25
:102A5000F9E7F8B50546AC6BFEF77AF90646286843
:102A6000006800F48070B0F5807F2DD02068406849
:102A700020F02000216848602068406820F00200B3
:102A80002168486032466421204600F0A1F818B160
:102A9000606D40F020006065A06850B900BF002064
:102AA00000902068C068009020688068009000BF97
:102AB00000BF0020E086012084F85100606D18B14D
:102AC0002046FEF709FEF8BD2046FFF775F900BF66
:102AD000F9E770B50546AC6BFEF73AF9064628688B
:102AE000006800F48070B0F5807F21D020684068D5
:102AF00020F020002168486032466421204600F022
:102B000067F818B1606D40F020006065206840688B
:102B100020F00300216848600020E086E087012063
:102B200084F85100606D18B12046FEF7D5FD70BDE8
:102B30002046FFF743F900BFF9E7F8B504460E4613
:102B400015466068B0F5827F0DD1A068B0F5004FE2
:102B500003D0A068B0F5806F05D12068006820F030
:102B60004000216808606068B0F5827F1FD1A068CE
:102B7000B0F5806F0DD033460022802120460095AD
:102B800000F05CF808B3606D40F020006065032041
:102B9000F8BD3346002201212046009500F04EF892
:102BA00098B1606D40F0200060650320F0E7334687
:102BB000002201212046009500F040F828B1606D08
:102BC00040F0200060650320E2E70020E0E700001D
:102BD0007CB504460D461646164800681821B0FB21
:102BE000F1F01549B0FBF1F04FF47A7148430190D0
:102BF0006068B0F5827F0DD12B46002280212046EF
:102C0000009600F01BF898B1606D40F02000606500
:102C100003207CBD00BF019800B908E00198401E68
:102C2000019020688068C0F3C0100028F3D100BF75
:102C30000020EEE72400002040420F002DE9F84F6D
:102C400004460D4690461E46DDF82890FEF780F8B3
:102C5000A0EB0900371AFEF77BF882462C48006883
:102C6000C0F3CB307843009045E0701C002842D080
:102C7000FEF76EF8A0EB0A00B84200D2A7BB2068AE
:102C8000406820F0E000216848606068B0F5827F0D
:102C90000DD1A068B0F5004F03D0A068B0F5806FEB
:102CA00005D12068006820F0400021680860A06A13
:102CB000B0F5005F0DD100BF2068006820F400501F
:102CC000216808602068006840F4005021680860AE
:102CD00000BF012084F8510000BF002084F850009C
:102CE00000BF0320BDE8F88FFFE7009800B9002778
:102CF0000098401E0090206880682840A84201D1BA
:102D0000012000E000204045AFD10020EAE70000AC
:102D10002400002008B5002429480068009000BF66
:102D20002046FDF74DFB002541E000224FF4807165
:102D30002448FEF707F8012211022248FEF702F8A4
:102D4000012000F0C1FC012210211F48FDF7FAFF0D
:102D500001231E4A69461E48FEF7FAFE0022102192
:102D60001948FDF7EFFF012000F0AEFC294619A03D
:102D700000F09CFB15480088C0B100BF0122102163
:102D80001148FDF7DFFF01220DF102011048FEF7A7
:102D900095FF012211490E48FEF74AFE002210213C
:102DA0000948FDF7CFFF012000F08EFC6D1C082DB7
:102DB000BBDB601CC4B2072CB2DD0024B0E700000E
:102DC0008C57000800100240000002400000002064
:102DD000C000002025640D0A000000000200002051
:102DE00000BF012000F070FCFBE7000000BF0022E4
:102DF0004FF480710748FDF7A5FF642000F064FCE4
:102E0000012211020348FDF79DFF642000F05CFCE5
:102E1000EDE70000000C024010B54FF0E020006923
:102E200002F016FA012801D001F032FE10BD0000B8
:102E300000B593B0302107A8FDF76EFA142102A85F
:102E4000FDF76AFA00BF002001902448006840F0B6
:102E50008050224908600846006800F080500190C8
:102E600000BF00BF00BF002001901D48006840F473
:102E700080401B4908600846006800F480400190CB
:102E800000BF00BF012007900004089002200D90B1
:102E900041050E9110210F914FF4A871109102215C
:102EA00011910421129107A8FEF7C8F908B1FDF7A6
:102EB00002FC0F20029002200390002004904FF4A7
:102EC000A05005904FF480500690052102A8FEF70F
:102ED00055F808B1FDF7EFFB13B000BD40380240D4
:102EE000007000400348006840F470000149086029
:102EF0007047000088ED00E010B50248FEF7FBFFC8
:102F000010BD0000DC02002010B50268294B984279
:102F10000ED0B0F1804F0BD0274B984208D0274BF2
:102F2000984205D0264B984202D0264B984203D1B6
:102F300022F070024B681A431E4B984220D0B0F129
:102F4000804F1DD01C4B98421AD01C4B984217D072
:102F50001B4B984214D01B4B984211D01A4B9842ED
:102F60000ED01A4B98420BD0194B984208D0194BEF
:102F7000984205D0184B984202D0184B984203D182
:102F800022F44072CB681A4322F080034C6943EA72
:102F9000040202608B68C3620B688362054B98422F
:102FA00002D0084B984201D10B69036301234361AE
:102FB00010BD000000000140000400400008004077
:102FC000000C00400004014000400140004401406A
:102FD0000048014000180040001C00400020004054
:102FE00070B50546AC6B0020E085E0842046FFF715
:102FF0005DF870BD00BF00BF02680C3252E8002FC0
:1030000022F4907102680C3242E80013002BF3D1D5
:1030100000BF00BF00BF0268143252E8002F22F048
:1030200001010268143242E80013002BF3D100BF03
:10303000016B01290ED100BF00BF02680C3252E8BB
:10304000002F22F0100102680C3242E80013002B1E
:10305000F3D100BF202180F83E10002101637047AA
:1030600010B504462068C06820F040002168C860A0
:10307000202084F83D002046FFF7BEFA002010BD56
:10308000F8B5044694F83E00222873D1A068B0F544
:10309000805F0CD1206950B90025A66A206840687D
:1030A000C0F308003080A06A801CA06215E0A56A09
:1030B0000026A068B0F5805F03D0A06828B9206919
:1030C00018B920684068287004E02068406800F063
:1030D0007F002870A06A401CA062E08D401E80B274
:1030E000E085002844D12068C06820F020002168D5
:1030F000C8602068C06820F480702168C8602068BB
:10310000406920F0010021684861202084F83E00D9
:10311000206B012826D10020206300BF00BF21685A
:103120000C3151E8001F21F0100021680C3141E8FA
:103130000002002AF3D100BF2068006800F01000F0
:1031400010280AD100BF002000902068006800907D
:1031500020684068009000BF00BFA18D2046FEF7A8
:10316000A4FF02E02046FFF7DDF90020F8BD01E0F2
:103170000020FBE70220F9E72DE9F84F044620681C
:10318000006920F44050E168084321680861216922
:10319000A068084361690843E1690843009020681A
:1031A000C06849F20C618843009908432168C860EF
:1031B0002068406920F44070A16908432168486193
:1031C00076492068884203D075492068884203D137
:1031D000FDF7CEFF814602E0FDF7BAFF8146E069C8
:1031E000B0F5004F6CD102206168A0FB015003468E
:1031F0001920A9FB007001462A463846FDF742F81F
:103200006421B0FBF1F04FEA001A02206168A0FBD4
:1032100001510B461920A9FB00712A463846FDF7DB
:1032200031F8834602206168A0FB01500346192053
:10323000A9FB00712A463846FDF724F86421B0FB4B
:10324000F1F000EBC00101EB0010ABEB800032218C
:1032500001EBC0006421B0FBF1F000F0F8000AEBD4
:10326000400A02206168A0FB015003461920A9FB17
:10327000007001462A463846FDF704F883460220CE
:103280006168A0FB015003461920A9FB00712A4682
:103290003846FCF7F7FF6421B0FBF1F000EBC0010A
:1032A00001EB0010ABEB8000322101EBC000642188
:1032B000B0FBF1F000F007005044216888606AE03C
:1032C00004206168A0FB015003461920A9FB00708F
:1032D00001462A463846FCF7D5FF8246042061683D
:1032E000A0FB015003461920A9FB007001462A46A5
:1032F0003846FCF7C7FF6421B0FBF1F000EBC001DA
:1033000001EB0010AAEB8000322101EB00106421D8
:10331000B0FBF1F000F0F00A04206168A0FB01703E
:1033200003461920A9FB00513A462846FCF7AAFF9C
:103330006421B0FBF1F00AEB001A04206168A0FBE5
:1033400001510B461920A9FB00712A463846FCF7AB
:1033500099FF834604206168A0FB015003461920B1
:10336000A9FB007001462A463846FCF78BFF642112
:10337000B0FBF1F000EBC00101EB0010ABEB800003
:10338000322101EB00106421B0FBF1F000F00F00DE
:10339000504421688860BDE8F88F000000100140AB
:1033A00000140140014691F83D00212828D1886889
:1033B000B0F5805F0BD1086948B90A6A1088C0F37C
:1033C00008000B685860086A801C086205E00B6AF8
:1033D000581C086218780B685860C88C401E80B270
:1033E000C88458B90868C06820F080000B68D860AD
:1033F0000868C06840F040000B68D8600020704743
:103400000220FCE72DE9F04104460D461746984698
:10341000069E34E0701C88B32EB1FDF799FCA0EB3A
:103420000800B0422BD900BF00BF21680C3151E821
:10343000001F21F4D07021680C3141E80002002AFD
:10344000F3D100BF00BF00BF2168143151E8001F55
:1034500021F001002168143141E80002002AF3D173
:1034600000BF202084F83D0084F83E0000BF00200B
:1034700084F83C0000BF0320BDE8F081FFE720682E
:1034800000682840A84201D1012000E00020B84295
:10349000C0D00020F0E7000010B50248FEF708FE9B
:1034A00010BD0000D801002000BFFEE70FB4054B9F
:1034B00010B503A9044A029800F036F810BC5DF874
:1034C00014FB00007D360008BC00002002480068A4
:1034D000C0F30220704700000CED00E010B500289A
:1034E00004DB0A07130E054A135406E00A07140EFC
:1034F000034A00F00F031B1FD45410BD00E400E08A
:1035000018ED00E0EFF30580704702E008C8121FD5
:1035100008C1002AFAD170477047002001E001C1BC
:10352000121F002AFBD170472DE9FF4F89B09B463F
:103530000446002506E025280BD05A460B999047F3
:10354000641C6D1C20780028F5D10DB02846BDE81C
:10355000F08F0027B8460122474900E0074314F8DE
:10356000013F203B02FA03F00842F7D120782E28D1
:1035700019D114F8010F47F004072A280ED06FF074
:103580002F022078A0F1300109290CD808EB88011E
:1035900002EB410100EB0108641CF2E70A98641C8D
:1035A00050F8048B0A9020780028CED0642808D0E8
:1035B000692806D075281ED05A460B9990476D1C75
:1035C00058E00A994FF00A0901C90A91002802DA65
:1035D00040422D2102E0390504D52B218DF8201021
:1035E000012103E0F90704D02021F7E78A4608AE5D
:1035F0000DE00021FAE70A994FF00A0901C90A9182
:10360000F7E74946FCF793FE303106F8011D002824
:10361000F7D1ADEB060000F12009780701D44FF097
:103620000108C84502DDA8EB090000E00020804643
:10363000002706E008A85A46C05D0B9990476D1C0C
:103640007F1C5745F6DB04E030205A460B99904723
:103650006D1CB8F10001A8F10108F5DC05E016F8D1
:10366000010B5A460B9990476D1CB9F10001A9F165
:103670000109F4DC641C65E70928010038B504463B
:103680000D46A0B200904FF6FF7302226946024831
:10369000FEF749FF204638BDD8010020FDF76AFB40
:1036A000FFF7C6FBFFF75AF8FEF7E4FFFFF714F940
:1036B000FFF736F9FEF7A4FF00F016F8FFF70EF853
:1036C00000F028F800BFFEE770B50546FFF71AFFC7
:1036D00010B16FF0050404E0002415B1284600F095
:1036E000FBFF204670BD000010B5FFF70BFF10B1C7
:1036F0006FF0050409E00648006820B9012004497C
:103700000860002401E04FF0FF34204610BD0000A7
:103710007800002070B5FFF7F5FE10B16FF00504DA
:103720001FE011480068012819D100BF801F002147
:10373000002804DB0A07130E0C4A135406E00A079C
:10374000150E0B4A00F00F031B1FD55400BF00BF1E
:1037500002200549086001F03BF8002401E04FF029
:10376000FF34204670BD00007800002000E400E037
:1037700018ED00E02DE9FF478046894614460020F9
:103780000390FFF7BFFE00284ED1B8F1000F4BD0D9
:10379000802618258246471E44B3206808B1D4F815
:1037A00000A0A06900B1A5692DB1382D03D82079FA
:1037B00000F0010018B1002004B0BDE8F087606996
:1037C00008B160698608A06840B1E0685C2805D34C
:1037D000206918B1606908B1012708E0A06830B914
:1037E000E06820B9206910B9002700E00027012F08
:1037F0000CD12169A0684B463246CDE900510290B8
:103800005146404601F0C6FC03900DE067B903A89D
:10381000B2B24B465146CDE90050404601F088FC1B
:10382000012801D0002003900398C5E72DE9F0415D
:1038300005460E461648076816480068001D00F049
:10384000C3FD681C38B936B112480168091D124819
:1038500000F010FE1AE07C190E4800684460BC427B
:1038600007D20C480168091D0C48006800F0E8FD0B
:103870000CE008480168091D0948006800F0E0FDF7
:1038800008480068844201D206480460BDE8F0811F
:103890003C000020280000201408002030000020F8
:1038A0002C0000205800002010B5044600F0EEFD6A
:1038B00024480068401C234908602348006840B938
:1038C000214804600846006801280DD100F0FCF989
:1038D0000AE01E48006838B91B480068C06AE16AFF
:1038E000884201D81848046019480068401C1849EB
:1038F00008600846006860641649E06A0968884202
:1039000002D91449E06A0860E16A01EB8101124AB8
:1039100002EB8100211D00F0ADFD00F0E1FD0B4840
:10392000006868B108480068C06AE16A884207D246
:103930004FF0805009490860BFF34F8FBFF36F8F7E
:1039400010BD0000380000202800002044000020A6
:1039500054000020400000206403002004ED00E03B
:1039600008B500F093FD12480068E8B9114800F06E
:1039700057FD114800F054FD0E48104908600E48EC
:103980000F49086000200F4B0F4A102100900A20B9
:1039900001F0C5F8064908600846006820B10BA18F
:1039A0000348006800F05CFE00F09AFD08BD0000CE
:1039B0006C000020280800203C0800206400002043
:1039C0006800002050080020A0080020546D7251AB
:1039D0000000000010B516E000F058FD0C48C0686B
:1039E000C468201D00F0F0FC0A480068401E094928
:1039F000086009480068401E0749086000F070FD33
:103A0000204600F05FF8044800680028E4D110BDAB
:103A100000080020380000203400002070B5044663
:103A20000D46206C70B1216CE0680144E160D4E97E
:103A30000210884201D32168E1602846226CE168C7
:103A4000FCF751FC70BD2DE9F04104460F461546C8
:103A50004FF00008A66B206C48B9206800282CD1D4
:103A6000A06801F0ADFC80460020A06025E07DB993
:103A70003946226C6068FCF736FC216C60680844AB
:103A80006060D4E90101884217D32068606014E0C7
:103A90003946226CE068FCF726FC216CE068411A8C
:103AA000E1602168E068884203D2216CA068411A75
:103AB000E160022D01D106B1761E701CA063404664
:103AC000BDE8F08110B5044694F8590030B9206B78
:103AD00000F024FD204600F021FD1AE094F8590082
:103AE000012803D1204600F019FD12E094F8590096
:103AF000022801D1012000E0002050B900BF502071
:103B000080F31188BFF34F8FBFF36F8F00BF00BFEB
:103B1000FEE710BD0146084A126812680AB9012280
:103B200000E000220A600A6822B9034A1268D268DB
:103B3000106800E0002070476400002030B54FF4AA
:103B40007053174800F007042CB1C01D20F0070087
:103B5000134C041B1B1B0246124C22600024114D07
:103B60006C60D018083820F007000F4C206000244B
:103B70000D4D2D686C600C4D2D682C601146441A5B
:103B80004C60094C24680C60084D4C682C60084D52
:103B90004C682C604FF00044064D2C6030BD000096
:103BA000F80F00207C000020840000208C00002002
:103BB000880000209800002000BFFFF70BFF064898
:103BC00000680128F9D94FF0805004490860BFF31C
:103BD0004F8FBFF36F8FF0E76403002004ED00E028
:103BE0002DE9F04106460D4617469846069C0DB94C
:103BF000246000E02760E66325640121204600F090
:103C0000FFFF84F84C80BDE8F0812DE9F05F82462B
:103C10000E4690469B460A9F0C9C4FEA8801A522BF
:103C2000206BFCF772FBA8F10100216B01EB80090E
:103C300029F0070909F0070008B9012000E0002079
:103C400050B900BF502080F31188BFF34F8FBFF3EE
:103C50006F8F00BF00BFFEE786B1002507E0715DF2
:103C600004F134004155705D00B902E06D1C102D67
:103C7000F5D300BF00214320015502E0002084F865
:103C80003400382F00D33727E762E764002020652F
:103C9000201D00F0D2FB04F1180000F0CEFB2461DF
:103CA000C7F13800A06164620020606584F85800A4
:103CB0005A465146484600F071FB20600B9808B107
:103CC0000B980460BDE8F09F10B5002407E004EBFA
:103CD00084010F4A02EB810000F0A2FB641C382C27
:103CE000F5D30C4800F09CFB0B4800F099FB0B4807
:103CF00000F096FB0A4800F093FB0A4800F090FBA6
:103D000004480949086004480849086010BD0000DB
:103D100064030020C4070020D8070020EC0700201F
:103D200000080020140800202C0000203000002093
:103D300010B50146164800E0006803688B42FBD3CB
:103D40000246436813448B4204D143684C682344C1
:103D5000436001460A464B6813440468A34211D1EC
:103D60000C4C03682468A34208D04B68046864685C
:103D700023444B6003681B680B6005E0054B1B6820
:103D80000B6001E003680B60884200D0016010BD49
:103D90007C000020840000202DE9F04104460D46FF
:103DA00016461F464FF0000865602461B5420CD8E6
:103DB000F01BA169884202D34FF0010811E0211DD8
:103DC0000948006800F03CFB0BE0BE4204D2BD4253
:103DD00002D34FF0010804E0211D0448006800F000
:103DE0002FFB4046BDE8F081680000206400002001
:103DF00070B5054600F04AFBA86B08B9012400E045
:103E0000002400F06DFB204670BD70B5054600F043
:103E10003DFBA86BE96B884201D1012400E000243E
:103E200000F05EFB204670BDF8B505460F461A4807
:103E30000068C068C468201D00F0C6FA94F8280025
:103E400000F00400E8B1A06941192B463A4620462B
:103E5000FFF7A2FFD8B1002003462A460146009092
:103E6000204601F009FC064656B900BF502080F3F9
:103E70001188BFF34F8FBFF36F8F00BF00BFFEE706
:103E800005E094F8280020F0010084F8280020467E
:103E9000216A8847F8BD000064000020F0B587B0B3
:103EA000A0E00398002811DA04AE56B900BF5020F4
:103EB00080F31188BFF34F8FBFF36F8F00BF00BF38
:103EC000FEE7D6E90020B168904700BF03980028BC
:103ED000E6DB059C606908B9012000E0002010B90C
:103EE000201D00F071FA02A800F0DEF805460398E4
:103EF0000A2875D2DFE800F0090507394163060892
:103F00003A4200BF00BF00BF00BF94F8280040F055
:103F1000010084F828000498A269811803462A4603
:103F20002046FFF739FFF8B12046216A884794F808
:103F3000280000F00400B8B1002000900498A169A6
:103F4000421800231946204601F096FB074657B950
:103F500000BF502080F31188BFF34F8FBFF36F8FE6
:103F600000BF00BFFEE700BF3BE000BF94F82800A1
:103F700020F0010084F8280033E000BF94F8280006
:103F800040F0010084F828000498A061A06908B1FD
:103F9000012000E0002050B900BF502080F31188BC
:103FA000BFF34F8FBFF36F8F00BF00BFFEE7A06965
:103FB00041192B462A462046FFF7EEFE11E094F801
:103FC000280000F0020018B9204600F0A7FA05E02A
:103FD00094F8280020F0010084F8280001E0FFE7B1
:103FE00000BF00BF002203A90448006800F0A6FF3C
:103FF00000287FF456AF07B0F0BD00006C00002031
:10400000F8B505460C4600F03FFC684600F04CF859
:104010000646009820BB44B9B54206D801F06EFAB6
:1040200031462846FFF700FF1CE03CB10E4800680F
:10403000006808B9012000E000200446A91B2246C0
:104040000A48006800F022FB01F058FA50B94FF01E
:10405000805007490860BFF34F8FBFF36F8F01E0B7
:1040600001F04CFAF8BD0000680000206C00002050
:1040700004ED00E00A490968096809B9012100E076
:10408000002121B14FF0FF31064A116006E00449DA
:104090000968C968C868034A416811607047000030
:1040A0002C0000205800002070B5044601F0E0F814
:1040B000054607480068854204D200F00BF801204D
:1040C000206001E00020206001480560284670BDA6
:1040D000740000202DE9F84334E025480068C068EA
:1040E000056823480068C068C468201D00F06CF9AA
:1040F0002046216A884794F8280000F0040008B39D
:10410000A0694619AE4207D966602461211D18488E
:10411000006800F095F915E0002003462A460146A4
:104120000090204601F0A8FA074657B900BF50207A
:1041300080F31188BFF34F8FBFF36F8F00BF00BFB5
:10414000FEE700BF0A480068006808B9012000E0E7
:1041500000200028C1D00648D0F80080054800683B
:10416000034908600348C0F80080BDE8F8830000F8
:1041700064000020680000200E480068401C08B958
:10418000012000E0002050B900BF502080F31188CA
:10419000BFF34F8FBFF36F8F00BF00BFFEE700BFBD
:1041A000502080F31188BFF34F8FBFF36F8F00BF94
:1041B00000BFFEE79C00002008B500BF6846FFF77F
:1041C000A9FC044620460099FFF71AFFFFF766FE98
:1041D000F4E770B5044600F059F994F9455010E041
:1041E000606A08B9012000E0002038B904F1240019
:1041F00001F038F918B100F0A9FA00E003E0681EF8
:1042000045B2002DECDC00BFFF2084F8450000F033
:1042100067F900F03BF994F9445010E0206908B9BF
:10422000012000E0002048B904F1100001F01AF963
:1042300008B100F08BFA681E45B200E001E0002DE5
:10424000ECDC00BFFF2084F8440000F049F970BDA9
:104250002DE9F04104464FF0000800F015FB4948F5
:10426000006808B9FFF76AFC47480068204000284A
:1042700070D1D4B1083404F00700B0B104F00700E5
:10428000C0F10800044404F0070008B9012000E070
:10429000002050B900BF502080F31188BFF34F8F2A
:1042A000BFF36F8F00BF00BFFEE7002C52D037482E
:1042B000006884424ED8364E3046056801E02E46EE
:1042C0002D686868A04202D228680028F7D12D48DE
:1042D000006885423ED0306800F1080828683060E8
:1042E0006868001B102819D92F1907F0070008B9B2
:1042F000012000E0002050B900BF502080F3118859
:10430000BFF34F8FBFF36F8F00BF00BFFEE768683A
:10431000001B78606C603846FFF70AFD1B4968682F
:104320000968081A194908600846006819490968A7
:10433000884203D215480068164908601249686827
:104340000968084368600020286013480068401C22
:104350001149086001F0D2F808F0070008B90120FF
:1043600000E0002050B900BF502080F31188BFF357
:104370004F8FBFF36F8F00BF00BFFEE74046BDE821
:10438000F0810000840000209800002088000020B8
:104390007C0000208C00002090000020001F4FF0C7
:1043A00080730360001F21F001030360001F054BB1
:1043B000036014380260001F6FF0020303602038AE
:1043C000704700007941000801460A69D1E90130CF
:1043D0009860D1E9010358605068884201D188682B
:1043E0005060002008611068401E1060106870471F
:1043F000034B0360034B0B60802313607047000086
:10440000400900209C090020034B0360034B0B6014
:104410004FF48073136070479C0B0020F80B002052
:1044200000F1080141604FF0FF31816000F10801A7
:10443000C160016100210160704700210161704786
:1044400010B502460B685C1C0CB9106907E002F15C
:10445000080000E04068446824689C42FAD9446837
:104460004C604C68A160886041600A611468641CFB
:10447000146010BD42684A6093688B60936859600D
:104480009160086103685B1C0360704700BF5020A7
:1044900080F31188BFF34F8FBFF36F8F00BF0E48BB
:1044A0000068401C0C49086008460068012812D1C9
:1044B0000A480068C0B208B9012000E0002050B9E5
:1044C00000BF502080F31188BFF34F8FBFF36F8F71
:1044D00000BF00BFFEE770479C00002004ED00E035
:1044E0000D48006850B900BF502080F31188BFF319
:1044F0004F8FBFF36F8F00BF00BFFEE70648006815
:10450000401E054908600846006820B9002080F375
:10451000118800BF00BF70479C00002070B50646A0
:104520003546002E44D0083D2C4622496068096873
:10453000084008B1012000E0002050B900BF502021
:1045400080F31188BFF34F8FBFF36F8F00BF00BFA1
:10455000FEE7206808B9012000E0002050B900BF44
:10456000502080F31188BFF34F8FBFF36F8F00BFD0
:1045700000BFFEE70F49606809680840C0B12068C5
:10458000B0B90C49606809688843606000F07CF944
:104590000949606809680844074908602046FFF730
:1045A000C7FB06480068401C0449086000F0A6FFED
:1045B00070BD0000980000208800002094000020BA
:1045C00000204FF0E02108618861064800684FF440
:1045D0007A71B0FBF1F0401E4FF0E02148610720F6
:1045E000086170472400002070B5FBF735FE0446D3
:1045F000102C16D304F1E02090F8F0531548007801
:10460000854201DB012000E0002050B900BF5020AE
:1046100080F31188BFF34F8FBFF36F8F00BF00BFD0
:10462000FEE70D48006800F4E0600C490968884224
:1046300001D8012000E0002050B900BF502080F3D5
:104640001188BFF34F8FBFF36F8F00BF00BFFEE72E
:1046500070BD0000A00000200CED00E0A4000020D0
:10466000024600200BE0084B53F8303033B9064BBC
:1046700043F8301003EBC0035A6002E0401C0828E6
:10468000F1D300BF70470000240300202DE9F04162
:1046900005460E4617462C46FFF7F8FE94F94400EF
:1046A000401C10B9002084F8440094F94500401CD7
:1046B00010B9002084F84500FFF712FFA06B28B95D
:1046C0003A46314604F1240000F062F82046FFF734
:1046D00080FDBDE8F081000070B504460025D4B12E
:1046E0001248006808B9012000E0002050B900BF5E
:1046F000502080F31188BFF34F8FBFF36F8F00BF3F
:1047000000BFFEE700F0C0F800212046FFF78EF85A
:1047100000F0F4FE05463DB94FF0805004490860B2
:10472000BFF34F8FBFF36F8F70BD0000600000209C
:1047300004ED00E00349096801600349096841602C
:1047400070470000500000203C000020012001497B
:10475000086070474C00002070B504460D4654B9FF
:1047600000BF502080F31188BFF34F8FBFF36F8FCE
:1047700000BF00BFFEE70548016818312046FFF77B
:104780005FFE01212846FFF751F870BD2800002088
:1047900070B505460E46144655B900BF502080F34B
:1047A0001188BFF34F8FBFF36F8F00BF00BFFEE7CD
:1047B0000648016818312846FFF75CFE0CB14FF03F
:1047C000FF3621463046FFF731F870BD2800002043
:1047D00010B586B000200590049003AA04A905A88E
:1047E000FFF706FE0022DDE904101346CDE90021A3
:1047F00002901EA11F48039A00F0CCFC1E490860DD
:104800000846006808B1012400E00024012C02D110
:1048100000F0F6FE0446012C15D100BF502080F3B5
:104820001188BFF34F8FBFF36F8F00BF4FF0FF3082
:1048300012490860012012490860002011490860EF
:1048400000F072F810E0601C08B1012000E00020C8
:1048500050B900BF502080F31188BFF34F8FBFF3D2
:104860006F8F00BF00BFFEE706B010BD49444C4546
:1048700000000000B93B00085C0000205800002048
:10488000440000203C00002002480068401C014910
:1048900008607047600000201E48006818B10120C1
:1048A0001D49086034E000201B4908601B4801686E
:1048B0000CE051B900BF502080F31188BFF34F8F37
:1048C000BFF36F8F00BF00BFFEE7491E01EB810001
:1048D000134A52F8200008B9012000E00020002807
:1048E000E7D101EB81020E4B03EB82004268526874
:1048F000426000F108024368934202D14268526864
:1049000042604268D268074B1A600448016000BFE9
:1049100070470000600000204C0000204000002094
:1049200064030020280000201CB55248006852494A
:10493000884201D0012000E0002050B900BF502083
:1049400080F31188BFF34F8FBFF36F8F00BF00BF9D
:10495000FEE7484800684849491E884201D00120C6
:1049600000E0002050B900BF502080F31188BFF351
:104970004F8FBFF36F8F00BF00BFFEE73F49084670
:1049800000780190FF200A461070084600780090D9
:104990009DF8000000F0F0009DF80020904201D149
:1049A000012000E0002050B900BF502080F31188A2
:1049B000BFF34F8FBFF36F8F00BF00BFFEE79DF8BF
:1049C000000000F050002E4A107007202D4A1060A1
:1049D00009E02C480068401E2A4A10609DF800003B
:1049E0004006000E00909DF8000000F08000802836
:1049F000EFD024480068C0F10700042801D101204D
:104A000000E0002050B900BF502080F31188BFF3B0
:104A10004F8FBFF36F8F00BF00BFFEE719480068DC
:104A20000002184A10601046008800F4E060106030
:104A3000124A019810700F482030006840F470004E
:104A40000C49203108600846006840F0704008605A
:104A5000FFF7B6FD00200C490860FBF7C5FB0B48CB
:104A6000006840F0404009490860FBF7A9FB0020BE
:104A70001CBD000000ED00E071C20F4100E400E049
:104A8000A0000020A40000209C00002034EF00E0E3
:104A900010B500BF502080F31188BFF34F8FBFF3D4
:104AA0006F8F00BF00F0EAFB18B14FF0805004494F
:104AB000086000BF002080F3118800BF10BD000017
:104AC00004ED00E02DE9F84305460E4617460DB10A
:104AD000012000E0002050B900BF502080F3118871
:104AE000BFF34F8FBFF36F8F00BF00BFFEE705FB23
:104AF00006F808F15000FFF7ABFB044664B1A1468D
:104B000009F15009002084F846003B464A463146E8
:104B100028460094FFF764F82046BDE8F8832DE9A5
:104B2000F84380460E4617461D46DDF82090B8F142
:104B3000000F01D0012000E0002050B900BF50203C
:104B400080F31188BFF34F8FBFF36F8F00BF00BF9B
:104B5000FEE70DB1012000E0002050B900BF502059
:104B600080F31188BFF34F8FBFF36F8F00BF00BF7B
:104B7000FEE707B10EB1012000E0002050B900BFF0
:104B8000502080F31188BFF34F8FBFF36F8F00BFAA
:104B900000BFFEE707B90EB9012000E0002050B9C0
:104BA00000BF502080F31188BFF34F8FBFF36F8F8A
:104BB00000BF00BFFEE7502000900098502801D1B0
:104BC000012000E0002050B900BF502080F3118880
:104BD000BFF34F8FBFF36F8F00BF00BFFEE700BF73
:104BE0002C464CB1012084F846004B463A463146EB
:104BF00040460094FEF7F4FF2046BDE8F88300002D
:104C000070B505460E462C4654B900BF502080F3BF
:104C10001188BFF34F8FBFF36F8F00BF00BFFEE758
:104C2000FFF734FCD4E90F12206801FB0200A060FA
:104C30000020A06320686060E06B401E226C216849
:104C400000FB0211E160FF2084F8440084F8450075
:104C50009EB9206908B9012000E00020A8B904F13C
:104C6000100000F0FFFB80B14FF080500949086050
:104C7000BFF34F8FBFF36F8F07E004F11000FFF712
:104C8000CFFB04F12400FFF7CBFBFFF729FC012049
:104C900070BD000004ED00E02DE9FF4383B006463F
:104CA00088461D464FF00009344654B900BF5020D5
:104CB00080F31188BFF34F8FBFF36F8F00BF00BF2A
:104CC000FEE7B8F1000F01D1206C08B9012000E027
:104CD000002050B900BF502080F31188BFF34F8FE0
:104CE000BFF36F8F00BF00BFFEE7022D02D1E06B64
:104CF000012801D1012000E0002050B900BF502060
:104D000080F31188BFF34F8FBFF36F8F00BF00BFD9
:104D1000FEE700F09DFA08B9059808B9012000E007
:104D2000002050B900BF502080F31188BFF34F8F8F
:104D3000BFF36F8F00BF00BFFEE700BFFFF7A6FB0A
:104D4000A06BE16B884201D3022D28D12A4641464F
:104D50002046FEF778FE0746606A08B9012000E0A9
:104D6000002068B904F1240000F07CFB88B14FF00A
:104D7000805032490860BFF34F8FBFF36F8F08E058
:104D80003FB14FF080502D490860BFF34F8FBFF304
:104D90006F8FFFF7A5FB012007B0BDE8F0830598F2
:104DA00018B9FFF79DFB0020F6E7B9F1000F04D119
:104DB00001A8FFF7BFFC4FF00109FFF791FBFFF7D8
:104DC00063FDFFF763FB94F94400401C10B9002019
:104DD00084F8440094F94500401C10B9002084F880
:104DE0004500FFF77DFB05A901A800F05BF9F0B9CC
:104DF0002046FFF70AF8A0B104F110000599FFF76B
:104E0000ABFC2046FFF7E5F900F078FB002895D1D0
:104E10004FF0805009490860BFF34F8FBFF36F8F89
:104E20008CE72046FFF7D5F900F068FB86E72046BF
:104E3000FFF7CFF900F062FB0020ADE704ED00E0E2
:104E40002DE9F84F07468A4690461E463C4654B91F
:104E500000BF502080F31188BFF34F8FBFF36F8FD7
:104E600000BF00BFFEE7BAF1000F01D1206C08B906
:104E7000012000E0002050B900BF502080F31188CD
:104E8000BFF34F8FBFF36F8F00BF00BFFEE7022E4F
:104E900002D1E06B012801D1012000E0002050B9CF
:104EA00000BF502080F31188BFF34F8FBFF36F8F87
:104EB00000BF00BFFEE7FFF797FB00BF5021EFF3F5
:104EC000118081F31188BFF34F8FBFF36F8F00BF45
:104ED0000546A06BE16B884201D3022E25D194F9DF
:104EE00045B0A06B0090324651462046FEF7ABFD20
:104EF0000BF1010088B9606A08B9012000E00020C8
:104F000050B904F1240000F0ADFA28B1B8F1000F57
:104F100002D00120C8F8000004E00BF1010040B20B
:104F200084F845004FF0010901E04FF0000900BF8F
:104F300085F3118800BF4846BDE8F88F2DE9F74199
:104F400083B005460E464FF000082C4654B900BF0A
:104F5000502080F31188BFF34F8FBFF36F8F00BFD6
:104F600000BFFEE70EB9206C08B9012000E0002068
:104F700050B900BF502080F31188BFF34F8FBFF3AB
:104F80006F8F00BF00BFFEE700F062F908B9059817
:104F900008B9012000E0002050B900BF502080F384
:104FA0001188BFF34F8FBFF36F8F00BF00BFFEE7C5
:104FB00000BFFFF76BFAA76BF7B131462046FEF74B
:104FC0002DFD781EA063206908B9012000E00020B3
:104FD00060B904F1100000F045FA38B14FF080508C
:104FE0002F490860BFF34F8FBFF36F8FFFF778FA39
:104FF000012006B0BDE8F081059818B9FFF770FAF6
:105000000020F6E7B8F1000F04D101A8FFF792FBEA
:105010004FF00108FFF764FAFFF736FCFFF736FAA6
:1050200094F94400401C10B9002084F8440094F91D
:105030004500401C10B9002084F84500FFF750FAE5
:1050400005A901A800F02EF8F0B92046FEF7D0FE21
:10505000A0B104F124000599FFF77EFB2046FFF77D
:10506000B8F800F04BFA0028A3D14FF080500C495B
:105070000860BFF34F8FBFF36F8F9AE72046FFF7AB
:10508000A8F800F03BFA94E72046FFF7A2F800F0FA
:1050900035FA2046FEF7ACFE00288AD00020A8E7AB
:1050A00004ED00E070B505460C4655B900BF502030
:1050B00080F31188BFF34F8FBFF36F8F00BF00BF26
:1050C000FEE754B900BF502080F31188BFF34F8F23
:1050D000BFF36F8F00BF00BFFEE7FFF7D7F912489D
:1050E00002686868131A2068401C08B9002617E097
:1050F0000E4928680968884204D06868904201D83F
:1051000001260DE02068984207D92068C01A206067
:105110002846FFF70FFB002602E000202060012652
:10512000FFF7DEF9304670BD3C0000205000002043
:105130002DE9FF4F85B0804689461746DDE912AB61
:10514000B800FFF785F8064656B15C20FFF780F8F7
:1051500004460CB1266304E03046FFF7DFF900E0B7
:1051600000248CB1002084F85900CDE900ABCDE9D2
:1051700002403A4649464046089BFEF746FD204617
:10518000FEF792FB012501E04FF0FF35284609B0FC
:10519000BDE8F08F2DE9F04F85B00746884691466F
:1051A0009A46DDE90EB6109C0EB1012000E0002009
:1051B00050B900BF502080F31188BFF34F8FBFF369
:1051C0006F8F00BF00BFFEE70CB1012000E00020A0
:1051D00050B900BF502080F31188BFF34F8FBFF349
:1051E0006F8F00BF00BFFEE75C20039003985C2830
:1051F00001D1012000E0002050B900BF502080F311
:105200001188BFF34F8FBFF36F8F00BF00BFFEE762
:1052100000BFB4B1AEB125462C462E63022085F8FE
:105220005900002004A953464A46CDE900B1CDE912
:10523000025041463846FEF7E8FC2846FEF734FBAC
:1052400001E000200490049805B0BDE8F08F000054
:105250000549096809B9012005E00449096809B947
:10526000022000E000207047440000206000002081
:1052700001490868704700003C0000202DE9F0411A
:105280004FF000084348006800287BD1424800687E
:10529000451C4148056015BB40480068006808B9D6
:1052A000012000E0002050B900BF502080F3118899
:1052B000BFF34F8FBFF36F8F00BF00BFFEE73748CC
:1052C0000768374800683549086035480760354841
:1052D0000068401C33490860FEF7CCFE00BF32482E
:1052E000006885423BD300BF2C480068006808B9BD
:1052F000012000E0002020B14FF0FF302A49086073
:105300002CE026480068C068C4686668B54202D2CE
:105310002548066022E0201DFFF756F8A06A18B164
:1053200004F11800FFF750F82049E06A0968884244
:1053300002D91E49E06A0860E16A01EB81011C4A5A
:1053400002EB8100211DFFF795F81A49E06A096810
:10535000C96A8842C8D34FF00108C5E700BF1548A5
:105360000068C06A00EB8000114951F82000012854
:1053700001D94FF001081048006808B14FF001084A
:1053800005E0FFE70D480068401C0C4908604046F6
:10539000BDE8F081600000203C0000202C000020CF
:1053A0003000002050000020580000204000002065
:1053B00064030020280000204C000020480000204A
:1053C00070B505462C460026002D43D022480068C3
:1053D000844201D1012000E0002050B900BF5020DC
:1053E00080F31188BFF34F8FBFF36F8F00BF00BFF3
:1053F000FEE7206D50B900BF502080F31188BFF345
:105400004F8FBFF36F8F00BF00BFFEE7206D401EC0
:105410002065E16CE06A88421CD0206DD0B9201D67
:10542000FEF7D2FFE06CE062E06AC0F13800A061F4
:105430000A49E06A0968884202D90849E06A0860B6
:10544000E16A01EB8101064A02EB8100211DFFF7B1
:1054500011F80126304670BD2800002040000020D1
:105460006403002070B50646F068C46854B900BFF4
:10547000502080F31188BFF34F8FBFF36F8F00BFB1
:1054800000BFFEE704F11800FEF79EFF1548006814
:10549000A0B9201DFEF798FF1349E06A0968884209
:1054A00002D91149E06A0860E16A01EB81010F4A03
:1054B00002EB8100211DFEF7DDFF04E004F118017D
:1054C0000B48FEF7D7FF0B49E06A0968C96A8842B2
:1054D00004D9012501200849086000E0002528467C
:1054E00070BD000060000020400000206403002028
:1054F000EC070020280000204C00002070B500249C
:1055000000263648006850B900BF502080F311884B
:10551000BFF34F8FBFF36F8F00BF00BFFEE7FEF7F3
:10552000B5FF2E480068401E2C49086008460068F8
:1055300000284ED12A48006800284AD023E0294894
:10554000C068C46804F11800FEF73EFF201DFEF796
:105550003BFF2549E06A0968884202D92249E06A8E
:105560000860E16A01EB8101204A02EB8100211D04
:10557000FEF780FF1E49E06A0968C96A884202D3C3
:1055800001201C4908601748006808B9012000E0A4
:1055900000200028D3D00CB1FEF76CFD164805683A
:1055A00065B100BFFFF76AFE10B101201149086024
:1055B0006D1E002DF6D100200F4908600D480068CF
:1055C00038B1012630070D490860BFF34F8FBFF394
:1055D0006F8FFEF785FF304670BD00006000002031
:1055E00038000020EC070020400000206403002069
:1055F000280000204C0000204800002004ED00E0BE
:1056000010B586B00024FEF7ABF916480068D0B19B
:1056100000200590049003AA04A905A8FEF7F4FE53
:105620000222DDE904100023CDE9002102900EA141
:105630000F48039AFFF7AEFD0E4908600846006860
:1056400000B1012400BF54B900BF502080F311887D
:10565000BFF34F8FBFF36F8F00BF00BFFEE7204641
:1056600006B010BD6C000020546D722053766300AC
:10567000B9410008700000202DE9FF4704460D469F
:1056800016461F46DDF830804FF0000954B900BFC0
:10569000502080F31188BFF34F8FBFF36F8F00BF8F
:1056A00000BFFEE71448006810B30095019602940D
:1056B000062D15DAFFF7CCFD022808D1002342465B
:1056C00069460D480068FFF7E7FA814610E00023BD
:1056D0001A46694608480068FFF7DEFA814607E087
:1056E00000233A46694604480068FFF7A9FB814653
:1056F000484604B0BDE8F0876C000020B8570008A9
:105700000000000000000000000000000000000099
:10571000000200001800000000000000000000006F
:10572000B05700080000000000000000000000006A
:10573000000000000002000008000000000000005F
:1057400000000000CC57000800000000000000002E
:10575000000000000000000000020000180000002F
:105760000000000000000000C0570008000000001A
:105770000000000000000000000000000002000027
:1057800018000000000000000000000000000018E9
:1057900000061016000610160000000000000000B1
:1057A00001020304060708090000000001020304C7
:1057B00041445461736B00004C45445461736B0069
:1057C00064656661756C745461736B0044617461E7
:1057D00054785461736B0000F857000800000020F3
:1057E000C00000000A350008B8580008C0000020BA
:1057F000384F00001A3500080000000000000000CB
:105800000000000000000000000000000000000098
:105810000000000010000000010000000024F4005F
:105820000000000000000000000000000000000078
:105830000000000000000000000000000000000068
:105840000000000000000000000000000000000058
:105850000000000000000000000000000000000048
:105860000000000000000000000000000000000038
:105870000000000000000000000000000000000028
:105880000000000000000000000000000000000018
:1058900000000000AAAAAAAA000000000000000060
:1058A000E814FF0C414420494E49542053554343CA
:0858B000455353000000000005
:040000050800018965
:00000001FF
